{
  "address": "0xDebb9Aa0CD6E74D1a62E4a7b7376e18440358919",
  "abi": [
    {
      "inputs": [
        {
          "internalType": "string",
          "name": "_greeting",
          "type": "string"
        }
      ],
      "stateMutability": "nonpayable",
      "type": "constructor"
    },
    {
      "inputs": [],
      "name": "greet",
      "outputs": [
        {
          "internalType": "string",
          "name": "",
          "type": "string"
        }
      ],
      "stateMutability": "view",
      "type": "function"
    },
    {
      "inputs": [],
      "name": "master",
      "outputs": [
        {
          "internalType": "address",
          "name": "",
          "type": "address"
        }
      ],
      "stateMutability": "view",
      "type": "function"
    },
    {
      "inputs": [
        {
          "internalType": "string",
          "name": "_greeting",
          "type": "string"
        }
      ],
      "name": "setGreeting",
      "outputs": [],
      "stateMutability": "nonpayable",
      "type": "function"
    },
    {
      "inputs": [
        {
          "internalType": "address",
          "name": "_master",
          "type": "address"
        }
      ],
      "name": "setMaster",
      "outputs": [],
      "stateMutability": "nonpayable",
      "type": "function"
    }
  ],
  "transactionHash": "0xb266a5bae96bed1fe229f3016088429309dcdc9a4ef57577e5dd790183fb9b17",
  "args": [
    "Greeting set from ./deploy/Greeter.ts"
  ],
  "solcInputHash": "420402b2624cc47ab5787952726e2613",
  "bytecode": "0x60806040523480156200001157600080fd5b5060405162000a0f38038062000a0f833981016040819052620000349162000199565b62000064604051806060016040528060228152602001620009ed60229139826200008160201b620002681760201c565b805162000079906000906020840190620000f3565b505062000337565b620000ce82826040516024016200009a9291906200027f565b60408051601f198184030181529190526020810180516001600160e01b03908116634b5c427760e01b17909152620000d216565b5050565b80516a636f6e736f6c652e6c6f67602083016000808483855afa5050505050565b8280546200010190620002e4565b90600052602060002090601f01602090048101928262000125576000855562000170565b82601f106200014057805160ff191683800117855562000170565b8280016001018555821562000170579182015b828111156200017057825182559160200191906001019062000153565b506200017e92915062000182565b5090565b5b808211156200017e576000815560010162000183565b600060208284031215620001ac57600080fd5b81516001600160401b0380821115620001c457600080fd5b818401915084601f830112620001d957600080fd5b815181811115620001ee57620001ee62000321565b604051601f8201601f19908116603f0116810190838211818310171562000219576200021962000321565b816040528281528760208487010111156200023357600080fd5b62000246836020830160208801620002b1565b979650505050505050565b600081518084526200026b816020860160208601620002b1565b601f01601f19169290920160200192915050565b60408152600062000294604083018562000251565b8281036020840152620002a8818562000251565b95945050505050565b60005b83811015620002ce578181015183820152602001620002b4565b83811115620002de576000848401525b50505050565b600181811c90821680620002f957607f821691505b602082108114156200031b57634e487b7160e01b600052602260045260246000fd5b50919050565b634e487b7160e01b600052604160045260246000fd5b6106a680620003476000396000f3fe608060405234801561001057600080fd5b506004361061004c5760003560e01c806326fae0d314610051578063a413686214610066578063cfae321714610079578063ee97f7f314610097575b600080fd5b61006461005f3660046103f6565b6100c2565b005b610064610074366004610426565b610112565b6100816101d6565b60405161008e9190610524565b60405180910390f35b6001546100aa906001600160a01b031681565b6040516001600160a01b03909116815260200161008e565b6100f0604051806060016040528060218152602001610650602191396001546001600160a01b0316836102ad565b600180546001600160a01b0319166001600160a01b0392909216919091179055565b6101bf60405180606001604052806023815260200161062d602391396000805461013b906105db565b80601f0160208091040260200160405190810160405280929190818152602001828054610167906105db565b80156101b45780601f10610189576101008083540402835291602001916101b4565b820191906000526020600020905b81548152906001019060200180831161019757829003601f168201915b5050505050836102f9565b80516101d290600090602084019061035d565b5050565b6060600080546101e5906105db565b80601f0160208091040260200160405190810160405280929190818152602001828054610211906105db565b801561025e5780601f106102335761010080835404028352916020019161025e565b820191906000526020600020905b81548152906001019060200180831161024157829003601f168201915b5050505050905090565b6101d2828260405160240161027e92919061056a565b60408051601f198184030181529190526020810180516001600160e01b0316634b5c427760e01b17905261033c565b6102f48383836040516024016102c593929190610537565b60408051601f198184030181529190526020810180516001600160e01b03166307e763af60e51b17905261033c565b505050565b6102f483838360405160240161031193929190610598565b60408051601f198184030181529190526020810180516001600160e01b0316632ced7cef60e01b1790525b80516a636f6e736f6c652e6c6f67602083016000808483855afa5050505050565b828054610369906105db565b90600052602060002090601f01602090048101928261038b57600085556103d1565b82601f106103a457805160ff19168380011785556103d1565b828001600101855582156103d1579182015b828111156103d15782518255916020019190600101906103b6565b506103dd9291506103e1565b5090565b5b808211156103dd57600081556001016103e2565b60006020828403121561040857600080fd5b81356001600160a01b038116811461041f57600080fd5b9392505050565b60006020828403121561043857600080fd5b813567ffffffffffffffff8082111561045057600080fd5b818401915084601f83011261046457600080fd5b81358181111561047657610476610616565b604051601f8201601f19908116603f0116810190838211818310171561049e5761049e610616565b816040528281528760208487010111156104b757600080fd5b826020860160208301376000928101602001929092525095945050505050565b6000815180845260005b818110156104fd576020818501810151868301820152016104e1565b8181111561050f576000602083870101525b50601f01601f19169290920160200192915050565b60208152600061041f60208301846104d7565b60608152600061054a60608301866104d7565b6001600160a01b0394851660208401529290931660409091015292915050565b60408152600061057d60408301856104d7565b828103602084015261058f81856104d7565b95945050505050565b6060815260006105ab60608301866104d7565b82810360208401526105bd81866104d7565b905082810360408401526105d181856104d7565b9695505050505050565b600181811c908216806105ef57607f821691505b6020821081141561061057634e487b7160e01b600052602260045260246000fd5b50919050565b634e487b7160e01b600052604160045260246000fdfe4368616e67696e67206772656574696e672066726f6d202725732720746f20272573274368616e67696e67206d61737465722066726f6d202725732720746f2027257327a2646970667358221220ce704a06499214d04ff13a1e8639e0426b3791971af692fb943063e01edf8d6064736f6c634300080600334465706c6f79696e67206120477265657465722077697468206772656574696e673a",
  "devdoc": {
    "kind": "dev",
    "methods": {},
    "version": 1
  },
  "userdoc": {
    "kind": "user",
    "methods": {},
    "version": 1
  },
  "storageLayout": {
    "storage": [
      {
        "astId": 4,
        "contract": "contracts/Greeter.sol:Greeter",
        "label": "greeting",
        "offset": 0,
        "slot": "0",
        "type": "t_string_storage"
      },
      {
        "astId": 6,
        "contract": "contracts/Greeter.sol:Greeter",
        "label": "master",
        "offset": 0,
        "slot": "1",
        "type": "t_address"
      }
    ],
    "types": {
      "t_address": {
        "encoding": "inplace",
        "label": "address",
        "numberOfBytes": "20"
      },
      "t_string_storage": {
        "encoding": "bytes",
        "label": "string",
        "numberOfBytes": "32"
      }
    }
  }
}